:020000040800F2
:100000000050002061010008150100081D010008D2
:10001000250100082D01000835010008000000003E
:100020000000000000000000000000003D0100088A
:1000300045010008000000004D01000855010008BE
:100040000D0100080D0100080D0100080D01000858
:100050000D0100080D0100080D0100080D01000848
:100060000D0100080D0100080D010008AD14000885
:100070000D0100080D0100080D0100080D01000828
:100080000D0100080D0100080D0100080D01000818
:100090000D0100080D0100080D0100080D01000808
:1000A0000D0100080D0100080D0100080D010008F8
:1000B0000D010008251A00080D0100080D010008B7
:1000C0000D0100080D0100080D0100080D010008D8
:1000D0000D0100080D0100080D010008BD15000804
:1000E0000D0100080D0100080D01000800000000CE
:1000F0000000000000000000000000000000000000
:1001000000000000000000005FF808F180B400AFBC
:10011000FEE700BF80B400AFFEE700BF80B400AFD1
:10012000FEE700BF80B400AFFEE700BF80B400AFC1
:10013000FEE700BF80B400AFFEE700BF80B400AFB1
:10014000FEE700BF80B400AFFEE700BF80B400AFA1
:10015000FEE700BF80B500AF00F044F980BD00BFEE
:1001600080B584B000AF0D4BBB600D4B7B60BB68AE
:100170003B6004E03B681A1D3A6000221A607A680E
:100180003B689A42F6D801F0EFFD00F031F8F860D4
:1001900001F020FEF86801F0E1FD00BF70000020D2
:1001A0002808002080B584B000AF0D4BFB600D4BDC
:1001B000BB600D4B7B60BB683B6007E03B681A1D72
:1001C0003A60FA68111DF96012681A607A683B6833
:1001D0009A42F3D801F008FD1037BD4680BD00BF3C
:0C01E000085D0008000000206C000020FA
:0401EC00A501000861
:1001F00080B500AF234BC8221A60234B3C221A6003
:10020000224B234A1A6000F04FF801F06FF84FF4C8
:100210007A7000F0D3F81F4B10225A621D4B1C4A13
:100220009A651C4BD3F88030042B15D1194B002252
:10023000C3F88020012000F0C1F81748012102F026
:10024000EBFF164BDB785BB29BB204339BB21348D7
:10025000194600F06DF814E00E4BD3F88030082BEF
:100260000FD10F48402101F017FF0346012B08D1A1
:10027000084B0022C3F880200748012102F0DAFF72
:10028000CFE7CEE764030020600300207C0000205D
:1002900020BF0200E004002000100140880300207D
:1002A000004800400000000080B584B000AF1CA3EF
:1002B000D3E90023C7E900230023FB6028E0F868A6
:1002C00004F022FE02460B4610461946D7E90023E9
:1002D00004F080FE02460B461046194603F07EFBF2
:1002E00002460B46104619464FF000020E4B04F032
:1002F00071FE02460B461046194605F005F9034605
:1003000099B20A4BFA6823F81210FB680133FB60BC
:10031000FB68B3F5B47FD2DB1037BD4680BD00BFAC
:10032000CAC342AD69DE913F00408F40900000207B
:1003300080B584B000AF78600B467B800023FB6003
:1003400000BF1B4B1B88002BFBD10023FB600AE086
:100350007A68FB6813441A781649FB680B441A70D4
:10036000FB680133FB607A88FB689A42F0D8FB682F
:10037000FF2B15D8FB689AB20D4B1A8005E0FB687D
:100380005A1CFA600B4A0021D154FB68FF2BF6D9A6
:10039000094840F22771012201F014FE012303E015
:1003A000034B00221A80002318461037BD4680BD3B
:1003B000E0050020040700200048004080B483B01E
:1003C00000AF7860064B7A681A6000BF044B1B6868
:1003D000002BFBD10C37BD465DF8047B704700BF96
:1003E0008000002080B400AF064B1B68002B04D0B7
:1003F000044B1B685A1E034B1A60BD465DF8047B14
:10040000704700BF8000002080B582B000AF00239D
:100410007B6000233B600AE00E4B9B6B7A681344C1
:100420007B600220FFF7CAFF3B6801333B603B68FB
:10043000092BF1DD7A68084BA3FB0213DA08054BA0
:100440001A64044BDB6923F00102024BDA610837BE
:10045000BD4680BDE0040020CDCCCCCC80B400AF44
:10046000054B5B6DC3F5AF2303F5C863024AD36543
:10047000BD465DF8047B7047E004002080B500AF06
:100480001448012102F0AEFE0346002B06D1124BA8
:100490001B6A43F00102104B1A6205E00E4B1B6A07
:1004A00023F001020C4B1A620A48022102F09AFE64
:1004B0000346002B06D1084B1B6A43F00202064B91
:1004C0001A6205E0044B1B6A23F00202024B1A6217
:1004D00080BD00BF00080140E004002080B400AFF0
:1004E000044B5B889BB21A46034B9A63BD465DF88A
:1004F000047B704788000020E004002080B400AF37
:10050000234B9B8E9BB24FF4B47202FB03F2204B41
:100510001B8F99B21F4BA3FB01039B099BB292FB5C
:10052000F3F31A461C4BDB6D1A4491091B4BA3FBDA
:1005300001C39B081A4901FB03F3D31A164A13653A
:10054000154BDA6D174B9B8E9BB24FF4B47101FBC8
:1005500003F1144B1B8F98B20E4BA3FB00C39B09F6
:100560009BB291FBF3F3D31A03F5AF2303F5C863F2
:1005700099090A4AA2FB01029208094901FB02F209
:100580009A1A054B5A65BD465DF8047B704700BF5B
:10059000002C0140D34D6210E0040020779A2E0019
:1005A000407E05000008004080B400AF0A4B0122E5
:1005B0001A80094B0322DA80074B00225A80064B2F
:1005C00001221A81044B01229A80034B0A225A818C
:1005D000BD465DF8047B7047D404002080B500AFB1
:1005E000064B00229A62054B0022DA62034B4FF45D
:1005F0007A721A6300F016F880BD00BFE004002094
:1006000080B500AF064B00229A62054B0F22DA62DA
:10061000034B4FF47A721A6300F004F880BD00BFF8
:10062000E004002080B582B000AF00237B60464B21
:100630009B6A7B60444B1B6B002B12D07B68B3F52D
:100640007A7F05D340F2E7337B603F4B7A689A624A
:100650003D4B9B69012B06D13B4B9B6A5B087B6042
:1006600001E000237B604FF080437A6892B2A3F8E8
:100670004020354BDB6ADB0803F00103002B05D07B
:1006800032481021012202F0E3FD04E02F4810213E
:10069000002202F0DDFD2C4BDB6A9B0803F0010316
:1006A000002B05D029482021012202F0D1FD04E0D1
:1006B00026482021002202F0CBFD234B5B6A5B0A17
:1006C00003F00103002B19D01F4B1B6A03F0030337
:1006D000032B08D01C4B1A6A1B4BDB6A534003F0F8
:1006E0000303002B0AD119484021002202F0B0FD7B
:1006F00016488021002202F0ABFD22E0124BDB6A9B
:100700005B0803F00103002B05D0104840210122B3
:1007100002F09EFD04E00D484021002202F098FD09
:10072000094BDB6A03F00103002B05D00748802149
:10073000012202F08DFD04E004488021002202F035
:1007400087FD0837BD4680BDE00400200010014051
:1007500080B483B000AF534B1B88534AD16B524ACD
:10076000926B8A1A02FB03F3504A82FB03021A447B
:100770005212DB17D21A4B4BDB8892FBF3F24C4B35
:100780005A60494BDA6B484B9B6BD31A4FF47A7221
:1007900002FB03F3454A82FB03121A445212DB1791
:1007A000D21A444B1B681A44424B1A60414B1B68D7
:1007B000002B07DD3F4B1A683F4B9A4202DD3D4B51
:1007C0003D4A1A603B4B1B68002B07DA394B1A680D
:1007D0003A4B9A4202DA374B384A1A60314B5B88FF
:1007E000344A126802FB03F22E4B1B8992FBF3F290
:1007F0002F4B9A60324B1A682B4BD96B2A4B9B6B51
:10080000CB1A2A4981FB030119444912DB17C91A83
:100810002C4B43F822102A4B1B68591C2A4B83FB94
:1008200001239A10CB17D21A13469B0013445B0086
:10083000CA1A234B1A60254B00221A6000237B60E2
:100840000BE0204B7A6853F82220204B1B681A4497
:100850001E4B1A607B6801337B607B68092BF0D9E3
:10086000104B9B88194A1168194A12688A1A02FBB0
:1008700003F20C4B5B8992FBF3F20D4BDA60134BE6
:100880001A68134B1A600A4B5A68094B9B681A4442
:10089000074BDB681A44064B1A600C37BD465DF8FF
:1008A000047B7047D4040020E0040020FB4321B9FE
:1008B000E80500207403002040420F00C0BDF0FF97
:1008C000E4050020900400206766666600070020AB
:1008D000F805002080B500AFFFF766FEFFF738FF90
:1008E000124B1B68002B0CDB104B1B681A46104B7D
:1008F0009A620F4B0E22DA620D4B4FF47A721A6332
:1009000010E00A4B1B68002B0CDA084B1B685B429B
:100910001A46074B9A62064B0D22DA62044B4FF4DB
:100920007A721A63FFF77EFE80BD00BFE8050020E3
:10093000E004002080B400AFBD465DF8047B704742
:1009400080B483B000AF474B1B88474A916D464A3D
:10095000526D8A1A02FB03F2424BDB8892FBF3F2E0
:10096000424B5A60404B9A6D3F4B5B6DD31A4FF42C
:100970007A7202FB03F23E4B1B681A443C4B1A602E
:100980003B4B1B68002B07DD394B1A68394B9A42E9
:1009900002DD374B374A1A60354B1B68002B07DAEC
:1009A000334B1A68344B9A4202DA314B324A1A609E
:1009B0002C4B5B882E4A126802FB03F2294B1B89E1
:1009C00092FBF3F2294B9A602C4B1A68264B996DD7
:1009D000254B5B6DCB1A1946294B43F82210274B48
:1009E0001B68264B00221A60264B00221A60002347
:1009F0007B600BE0224B7A6853F82220214B1B6866
:100A00001A44204B1A607B6801337B607B68002BA3
:100A1000F0D0144B9B881B4A11681B4A12688A1A33
:100A200002FB03F20F4B5B894FF47A7101FB03F376
:100A300092FBF3F20D4BDA60124B1A68124B1A60FC
:100A40000A4B5A68094B9B681A44084BDB681A44E6
:100A5000064B1A60054B1B680C37BD465DF8047BDE
:100A6000704700BF78030020E0040020BC04002091
:100A70008403002040420F00C0BDF0FFFC060020B0
:100A8000B8040020D00400200808002080B500AF82
:100A9000FFF756FF124B1B68002B0CDB104B1B683B
:100AA0001A46104B9A620F4B0E22DA620D4B4FF42E
:100AB0007A721A6310E00A4B1B68002B0CDA084BA1
:100AC0001B685B421A46074B9A62064B0D22DA629C
:100AD000044B4FF47A721A63FFF7A4FD80BD00BF88
:100AE000BC040020E004002080B500AFFFF730FE1A
:100AF000124B1B68002B0CDB104B1B681A46104B6B
:100B00009A620F4B0E22DA620D4B4FF47A721A631F
:100B100010E00A4B1B68002B0CDA084B1B685B4289
:100B20001A46074B9A62064B0D22DA62044B4FF4C9
:100B30007A721A63FFF776FD80BD00BF7003002054
:100B4000E004002080B500AF304B1B889BB21A46F2
:100B50002F4B5A602D4B5B889BB21A462C4B9A60E8
:100B60002A4B9B889BB21A46294BDA60FFF786FC1A
:100B7000FFF7B4FCFFF7C2FC254BDB6903F0010370
:100B8000002B02D0FFF740FC07E0214BDB6903F0AC
:100B90000203002B01D0FFF761FC1D4B5B6ADBB247
:100BA000002B02D1FFF71AFD2EE0194B5B6ADBB276
:100BB000012B02D1FFF724FD26E0154B5B6ADBB267
:100BC000022B02D1FFF72EFD1EE0114B5B6ADBB258
:100BD000042B02D1FFF77EFE16E00D4B5B6ADBB201
:100BE000082B02D1FFF7A6FE0EE0094B5B6ADBB2D1
:100BF000102B02D1FFF74AFF06E0054B5B6ADBB220
:100C0000202B01D1FFF770FF80BD00BF88000020BE
:100C1000E004002080B483B000AF03463960FB716C
:100C200097F90730002B0BDA0D49FB7903F00F031E
:100C3000043B3A68D2B21201D2B20B441A7609E0F0
:100C4000084997F907303A68D2B21201D2B20B4480
:100C500083F800230C37BD465DF8047B704700BF66
:100C600000ED00E000E100E080B582B000AF786008
:100C70007B68B3F1807F01D3012311E00A4B7A68CE
:100C800022F07F42013A5A604FF0FF300F21FFF708
:100C9000C1FF054B00229A60034B07221A60002314
:100CA00018460837BD4680BD10E000E080B500AFB3
:100CB00001F070FF4FF4803001F09AFF00BF312047
:100CC00002F09AF90346002BF9D0022002F0D8FA7C
:100CD000102002F0F1FA002002F012F8002002F0D9
:100CE00047F84FF4806002F027F84FF480304FF45B
:100CF000E01101F0ABFF012001F0C6FF00BF392079
:100D000002F07AF90346002BF9D0022001F0CCFF63
:100D100000BF01F0E5FF0346082BFAD180BD00BFFC
:100D200080B582B000AF0120012102F029F9042032
:100D3000012102F025F94FF6FF73BB800023FB7100
:100D40000223BB713B1D0B48194602F08FF90820A6
:100D5000012102F015F94FF6FF73BB800023FB71F0
:100D60000223BB713B1D0448194602F07FF9083786
:100D7000BD4680BD00080140000C014080B584B034
:100D800000AF4FF4C06002F0B7FD27233B7301238F
:100D9000BB730123FB7307F10C03184602F0BEFD81
:100DA0000B233B720323BB730123FB7207F1080380
:100DB000184602F0B3FD1D233B710223BB710123D2
:100DC000FB713B1D184602F0A9FD1037BD4680BDE2
:100DD00080B582B000AF0420012102F0D1F8482391
:100DE000FB710323BB710323BB803B1D03481946E2
:100DF00002F03CF90837BD4680BD00BF0008014045
:100E000080B586B000AF4FF40070012102F0B8F851
:100E10004FF4004001F0C8FF01237B7200233B61C7
:100E20004FF46023FB6000237B6003233B750123A9
:100E30003B723B1D1C48194602F0A4FB1A480121D5
:100E40000122062302F094FC174802210222062305
:100E500002F08EFC14480C210322062302F088FCC9
:100E60001148012102F0E0FB0F4802F015FC00BF21
:100E70000D4802F021FC0346002BF9D10A4802F08C
:100E800033FC00BF084802F03FFC0346012BF9D0B9
:100E90000548012102F050FC0348012102F0E0FB6B
:100EA0001837BD4680BD00BF0024014080B58CB01E
:100EB00000AF0120012102F045F8164802F014FAB3
:100EC00003233B610023FB600023FB62124BBB60EA
:100ED0004FF480633B628023BB6120237B620F4B16
:100EE0007B604FF48073FB6100237B614FF4805380
:100EF000BB623B1D0748194602F0B2FA05480121C2
:100F000002F0ECFA03480221012202F003FB303721
:100F1000BD4680BD08000240680300204C2401400B
:100F200080B586B000AF0820012102F029F810201A
:100F3000012102F025F80123BB820223BB75102397
:100F4000FB7507F114032348194602F08FF8214876
:100F50000121002202F07CF94FF48020012102F0EF
:100F60002DF84FF48063BB821823FB750323BB75F8
:100F700007F114031848194602F078F84FF400639B
:100F8000BB820423FB750323BB7507F114031248CE
:100F9000194602F06BF84FF4E1337B600C23FB81C0
:100FA0000023BB8100237B8100233B8100233B8204
:100FB0003B1D0A48194600F02BFF084840F2255116
:100FC000012200F0FFFF0548012100F0DBFF183788
:100FD000BD4680BD00100140000C014000480040AB
:100FE00080B588B000AF1020012101F0C9FFF023C7
:100FF000BB830223BB771023FB7707F11C03334825
:10100000194602F033F831481021002202F020F98D
:101010002E482021002202F01BF92C4840210022FA
:1010200002F016F929488021002202F011F904206B
:10103000012101F0A5FF0120012101F0BFFF0823DC
:10104000BB830223BB771823FB7707F11C032048DF
:10105000194602F00BF80023FB8200237B8240F24A
:10106000E733BB8240F2CF233B8200233B7607F17C
:1010700010034FF08040194601F082F860233B8056
:1010800000233B8101237B804FF4FA73FB803B46B6
:101090004FF08040194601F003FA4FF080400121E3
:1010A00001F07CFB4FF08040012101F01DFB4FF06F
:1010B00080400C21012201F08FFB4FF08040012184
:1010C00001F0B2FA2037BD4680BD00BF00100140DC
:1010D0000008014080B588B000AF0220012101F076
:1010E0006DFF00237B830023FB824FF6FF733B835E
:1010F0004723BB8200233B7707F11403234819469B
:1011000001F03EF80023BB800023BB810123FB805C
:101110004FF47A737B813B1D1C48194601F0ACF8F3
:101120001A48002101F000FB18480021012201F0BB
:1011300053FB16480221012201F096FA0023BB80DE
:101140000023BB810123FB804FF6FF737B813B1D96
:101150000E48194601F01CF90C48002101F000FB73
:101160000A48012101F0C0FA08480421012201F0D7
:1011700033FB06480421012201F076FA03480121DD
:1011800001F052FA2037BD4680BD00BF0004004088
:1011900080B584B000AF4FF40060012101F0F0FE93
:1011A0000420012101F0ECFE4FF40073BB81042305
:1011B000FB730323BB7307F10C033448194601F09A
:1011C00055FF334B01221A8504233B8000237B808B
:1011D0000123BB800023FB8000233B813B462C483E
:1011E000194601F0C5F92A48602101F061FA284842
:1011F000042101F01BFB2648802101F033FB244829
:10120000012101F011FA22480421012201F02CFAF7
:101210000820012101F0B4FE0420012101F0CEFEDE
:101220008023BB810423FB730323BB7307F10C03EF
:101230001848194601F01AFF174B01221A8504239A
:101240003B8000237B800123BB800023FB800023A5
:101250003B813B461048194601F08AF90E4860214F
:1012600001F026FA0C48042101F0E0FA0A48802136
:1012700001F0F8FA0848012101F0D6F906480421E6
:10128000012201F0F1F91037BD4680BD0008014090
:10129000002C0140000C01400008004080B483B0E5
:1012A00000AF00237B6007E00E4B7A68002143F813
:1012B00022107B6801337B607B683F2BF4DD094B98
:1012C00001221A60074B084ADA63064B064A1A6481
:1012D000044B40F2FF725A610C37BD465DF8047B47
:1012E000704700BFE00400208096980080B582B06F
:1012F00000AF5A4B00221A8000237B6007E0584B56
:101300007A68002123F812107B6801337B607B68C8
:10131000022BF4DD534B00221A80534B00221A801B
:10132000524B00221A80524B00221A60514B042269
:101330001A80504B0622DA804E4B00225A804D4BC9
:101340004FF6E8521A814B4B00229A80494B0522F6
:101350005A81494B01221A80474B4FF49672DA802A
:10136000454B01225A80444B45F2E4721A81424BAC
:1013700001229A80404B32225A81404B00221A604F
:101380003F4B00221A603F4B00221A6000237B6013
:1013900007E03D4B7A68002143F822107B68013357
:1013A0007B607B68092BF4DD00237B6007E0374B13
:1013B0007A68002143F822107B6801337B607B68E8
:1013C000032BF4DD324B00221A60324B00221A60EC
:1013D000314B00221A6000237B6007E02F4B7A68B4
:1013E000002143F822107B6801337B607B68002B6F
:1013F000F4DD00237B6007E0294B7A68002143F885
:1014000022107B6801337B607B68032BF4DDFFF7E0
:1014100045FFFFF74BFCFFF783FCFFF7AFFCFFF73F
:10142000D7FCFFF7EDFCFFF741FDFFF779FDFFF774
:10143000D7FDFFF74FFEFFF7ABFE1A4B1A681A4BAA
:10144000A3FB02139B091846FFF70EFC0346002B73
:1014500000D0FEE70837BD4680BD00BF6E03002008
:101460007400002004080020CC040020E0050020C7
:1014700080000020D40400207803002074030020A2
:1014800000070020E405002090040020E80500206B
:1014900084030020D0040020FC060020B8040020B3
:1014A000BC04002054000020D34D621090B583B0DE
:1014B00000AF022002F04CF83B4B1B889BB2132B71
:1014C00030D800237B6022E0384A7B68DB0013447D
:1014D000D3E90001364B7A6833F812309BB2324AB6
:1014E000128892B21446334A52F8242002FB03F3C6
:1014F0001A464FEAE273121843EB01032B4879684E
:10150000C9000144C1E900237B6801337B607B682B
:10151000022BD9DD244B1B889BB201339AB2224B9C
:101520001A803EE000233B6035E0204A3B68DB0048
:101530001344D3E900011E4B3A6833F812309BB2D2
:10154000194A128892B214461A4A52F8242002FB11
:1015500003F31A464FEAE273121843EB01031046F5
:10156000194640F6F3324FF0000303F0F5FF024650
:101570000B4691B2104B3A6823F812100B4A3B68A5
:10158000DB00D1184FF000024FF00003C1E9002347
:101590003B6801333B603B68022BC6DD024B0022F7
:1015A0001A800C37BD4690BD6E0300201008002045
:1015B00068030020000000208800002090B585B05E
:1015C00000AF864840F2255100F082FD0346002B13
:1015D00000F0E481824B1B88002B15D17F4800F07E
:1015E0004BFD03462A2B0BD17D4B1B887D4A2A21BC
:1015F000D1547B4B1B8801339AB2794B1A80CDE1D1
:10160000774B00221A80C9E1754B1B88012B26D12C
:10161000734B1B881C46714800F02EFD0346DAB25E
:10162000704B1A556E4B1B886E4AD35C5BB2012B14
:1016300006D16B4B1B8801339AB2694B1A80ADE11E
:10164000674B1B88674AD35C5BB22A2B03D1644B80
:1016500001221A80A2E1624B00221A809EE1604BB7
:101660001B88022B22D15E4B1B881C465B4800F076
:1016700003FD0346DAB25B4B1A55594B1B88594A96
:10168000D35C5BB2012B06D0554B1B88554AD35C0B
:101690005BB2022B06D1524B1B8801339AB2504BDE
:1016A0001A807BE14E4B00221A8077E14C4B1B885D
:1016B000032B10D14A4B1B881C46484800F0DCFC29
:1016C0000346DAB2474B1A55454B1B8801339AB291
:1016D000434B1A8062E1424B1B88032B19D9404BC4
:1016E0001B881A463F4BDB785BB203339A4210DA11
:1016F0003B4B1B881C46394800F0BEFC0346DAB25F
:10170000384B1A55364B1B8801339AB2344B1A802A
:1017100044E1334B1B881A46324BDB785BB2033310
:101720009A4240F038810023FB710023FB602C4B70
:101730001B881C46294800F09FFC0346DAB2294B5F
:101740001A550023BB600AE0BB680233254AD35C0C
:101750005BB2FA681344FB60BB680133BB60214B8A
:10176000DB785BB25A1CBB689A42EDDCFB68DBB2EB
:10177000DB43FB711B4BDB785BB20333194AD35C51
:10178000DBB2FA799A4240F00281164B9B785BB249
:10179000012B03D0022B00F0B080F8E0124B2A227C
:1017A0001A70114B00225A700F4B06229A700D4B83
:1017B000DB785BB2013BDBB21A4692001344DBB22A
:1017C0000233DBB2DAB2084BDA70084B1B68DAB2CC
:1017D000054B1A710023BB605BE000BF004800406E
:1017E00004080020FC05002088030020E0040020FD
:1017F000BB685A1C13469B001344BA6804328049E4
:10180000895C804AD154BA6813469B00134406335E
:10181000BA6804327A498A5C51B27B4A52F8212074
:10182000120ED1B2774AD154BA6813469B001344C2
:101830000733BA68043272498A5C51B2724A52F86C
:101840002120120CD1B26F4AD154BA6813469B00C2
:1018500013440833BA68043269498A5C51B26A4A4F
:1018600052F82120120AD1B2664AD154BA681346FE
:101870009B0013440933BA68043261498A5C51B24F
:10188000614A52F82120D1B25E4AD154BB6801337B
:10189000BB605B4BDB785BB25A1EBB689A42A7DC2D
:1018A000584BDB785BB20333564A0021D1540023F6
:1018B000FB600023BB600AE0BB680233514AD35C83
:1018C0005BB2FA681344FB60BB680133BB604D4BED
:1018D000DB785BB25A1CBB689A42EDDC494BDB7883
:1018E0005BB20333FA68D2B2D243D1B2454AD15483
:1018F000454B0422C3F8802049E00023BB6038E058
:10190000BA6813469B00134404333D4AD35CDBB2F0
:101910001946BB685A1C13469B001344384AD35CD3
:101920005BB21806BA6813469B0013440633344A68
:10193000D35C5BB2DBB21B041844BA6813469B004D
:10194000134407332E4AD35C5BB21B029BB218448C
:10195000BA6813469B0013440833294AD35C5BB230
:10196000DBB203441A46284B43F82120BB680133FD
:10197000BB60234BDB785BB2013B244A82FB031242
:101980005210DB17D21ABB689A42B9DC00BF204B59
:1019900000221A8002E01E4B00221A801D4840F2ED
:1019A000277100F095FB0346002B26D01A4B1A88AE
:1019B0001A4B1B889A4210D2174B1B88184AD35CCB
:1019C0005BB29BB21348194600F044FB124B1B88D4
:1019D00001339AB2104B1A800FE00E4840F2277183
:1019E000002200F0EFFA0C4B00221A800B4B002271
:1019F0001A80054B0822C3F880201437BD4690BDDD
:101A0000FC05002088030020E0040020676666666D
:101A10000408002000480040CC040020E00500201D
:101A20000407002080B582B000AF6448022100F0B6
:101A300099FF0346002B10D06048022100F0BCFF44
:101A4000FFF780F85D4800F07FFF034603F57A73E7
:101A50009BB25A48194600F021FF5848042100F073
:101A600081FF0346002B00F0A5805448042100F0BC
:101A7000A3FF534B1B68534AB2FBF3F37B607B68B5
:101A8000B3F5803F2FD27B687B804F4B1B88D908F2
:101A90004E4AA2FB010292084FF4B47101FB02F21C
:101AA0009B1A9BB21A464A4B33F812301BB2494A72
:101AB000126802FB03F2484B1B681A44474B9A65B5
:101AC000414B1B8801339AB23F4B1A803B4800F0D0
:101AD0003BFF03461A467B8813449BB2374819469E
:101AE00000F0EAFE4CE07A683D4BA3FB0213DB0BEF
:101AF0003B803C4B1B781A463B88013B9A4209D1FC
:101B00007B689AB23B8813449BB22C48194600F07C
:101B1000D3FE2FE029484FF6FF7100F0CDFE314B88
:101B20001B781A463B88013B9A4223DD264B1B88D3
:101B3000D908264AA2FB010292084FF4B47101FBB6
:101B400002F29B1A9BB21A46214B33F812301BB299
:101B5000204A126802FB03F21F4B1B681A441F4BFA
:101B60009A65194B1B8801339AB2174B1A801D4B8B
:101B700000221A701B4B1B780133DAB2194B1A7012
:101B8000114B1B88B3F5876F14D3144B1B68012BC3
:101B900010D00B4B1B6803F1C802094B1A60084BAD
:101BA0001B68B3F57A7F02D1054BC8221A60064B39
:101BB00000221A800837BD4680BD00BF00040040E7
:101BC00064030020B1622A0070000020176CC11667
:101BD00090000020600300207C000020E004002032
:101BE000018000807200002080B500AF154B154ABF
:101BF000126842F001021A60124A124B5968124BE5
:101C00000B4053600F4A0F4B1B6823F0847323F47F
:101C1000803313600B4B0B4A126822F480221A6047
:101C2000084B084A526822F4FE025A60054B4FF4F2
:101C30001F029A6000F00CF8044B4FF000629A60AB
:101C400080BD00BF001002400000FFF800ED00E082
:101C500080B500AF00F002F880BD00BF80B483B053
:101C600000AF00237B6000233B603A4B394A126887
:101C700042F480321A60374B1B6803F400333B6038
:101C80007B6801337B603B68002B03D17B68B3F535
:101C9000A06FF0D12F4B1B6803F40033002B02D050
:101CA00001233B6001E000233B603B68012B4BD1EB
:101CB000294B294A126842F010021A60264B264A24
:101CC000126822F003021A60234B234A126842F082
:101CD00002021A601F4B1F4A52685A601D4B1D4A70
:101CE00052685A601B4B1B4A526842F480625A6029
:101CF000184B184A526822F47C125A60154B154A48
:101D0000526842F4E8125A60124B124A126842F0CA
:101D100080721A6000BF0F4B1B6803F00073002B2A
:101D2000F9D00C4B0B4A526822F003025A60094B5F
:101D3000084A526842F002025A6000BF054B5B68D5
:101D400003F00C03082BF9D10C37BD465DF8047B7A
:101D5000704700BF001002400020024080B483B0F2
:101D600000AF7860FEE700BF80B582B000AF154AD3
:101D7000154BD31A9B103B6000237B6007E0124B8E
:101D80007A6853F8223098477B6801337B607A6821
:101D90003B689A42F3D30D4A0D4BD31A9B103B601C
:101DA00000237B6007E00A4B7A6853F8223098479B
:101DB0007B6801337B607A683B689A42F3D30837CB
:101DC000BD4680BDF0010008EC010008F0010008EC
:101DD000F001000880B582B000AF0B4A0B4BD31A5C
:101DE0009B103B603B687B6008E07B685A1E074B9A
:101DF00053F8223098477B68013B7B607B68002B5F
:101E0000F3D10837BD4680BDF0010008F00100089D
:101E100080B58CB000AF786039600023FB6200238E
:101E2000BB6200237B6200233B620023FB617B6873
:101E3000FB617B681B8A9BB2FB62FA6A4CF6FF73FC
:101E40001340FB623B68DB88FA6A1343FB62FB6A60
:101E50009AB27B681A827B689B899BB2FB62FA6AA2
:101E60004EF6F3131340FB623B689A883B681B896C
:101E700013439AB23B685B8913439BB2FA6A1343DC
:101E8000FB62FB6A9AB27B689A817B689B8A9BB2F1
:101E9000FB62FA6A4FF6FF431340FB623B689B8983
:101EA000FA6A1343FB62FB6A9AB27B689A8207F173
:101EB0000803184600F094FFFA69304B9A4202D1A9
:101EC0007B69BB6201E03B69BB627B689B899BB21B
:101ED0009BB21BB2002B0CDABA6A13469B00134468
:101EE0009A001A443B681B685B00B2FBF3F37B6209
:101EF0000BE0BA6A13469B0013449A001A443B68ED
:101F00001B689B00B2FBF3F37B627A6A1C4BA3FB5A
:101F100002135B091B01FB62FB6A1B09642202FBC3
:101F200003F37A6AD31A3B627B689B899BB29BB2AC
:101F30001BB2002B0DDA3B6ADB0003F13202104BBF
:101F4000A3FB02135B0903F00703FA6A1343FB6266
:101F50000CE03B6A1B0103F13202094BA3FB0213A5
:101F60005B0903F00F03FA6A1343FB62FB6A9AB240
:101F70007B681A813037BD4680BD00BF0038014004
:101F80001F85EB5180B483B000AF78600B46FB70C7
:101F9000FB78002B08D07B689B899BB243F40053ED
:101FA0009AB27B689A8107E07B689B899BB223F495
:101FB00000539AB27B689A810C37BD465DF8047B6A
:101FC000704700BF80B487B000AF786013460A4600
:101FD0007A807B7000233B610023FB600023BB60A1
:101FE00000237B617B687B617B88DBB25B09DBB2B2
:101FF0003B617B8803F01F03FB60FB68012202FA50
:1020000003F3BB603B69012B03D17B690C337B611C
:1020100009E03B69022B03D17B6910337B6102E04D
:102020007B6914337B617B78002B06D07B697A69EE
:102030001168BA680A431A6006E07B697A69116818
:10204000BA68D2430A401A601C37BD465DF8047B6B
:10205000704700BF80B483B000AF78600B467B80D0
:102060007B88C3F308039AB27B689A800C37BD461D
:102070005DF8047B704700BF80B483B000AF786028
:102080007B689B889BB2C3F308039BB218460C374E
:10209000BD465DF8047B704780B485B000AF7860C2
:1020A0000B467B800023FB737B681B889AB27B887E
:1020B00013409BB2002B02D00123FB7301E00023ED
:1020C000FB73FB7B18461437BD465DF8047B7047F5
:1020D00080B487B000AF78600B467B800023FB6044
:1020E00000237B610023BB600023FB747B88DBB291
:1020F0005B09DBB2BB607B8803F01F037B617B69FC
:10210000012202FA03F37B61BB68012B06D17B68D5
:102110009B899BB27A6913407B610FE0BB68022BFD
:1021200006D17B681B8A9BB27A6913407B6105E00C
:102130007B689B8A9BB27A6913407B617B881B0A10
:102140009BB2FB60FB68012202FA03F3FB607B6831
:102150001B889BB2FA681340FB607B69002B05D09B
:10216000FB68002B02D00123FB7401E00023FB7409
:10217000FB7C18461C37BD465DF8047B704700BFEA
:1021800080B485B000AF786039600023FB817B6844
:102190001B88FB817A682E4B9A4213D07A682D4BAC
:1021A0009A420FD07B68B3F1804F0BD07A682A4BEC
:1021B0009A4207D07A68294B9A4203D07A68284B12
:1021C0009A4208D1FB8923F07003FB813B685A884F
:1021D000FB891343FB817A68224B9A420CD07A68C0
:1021E000214B9A4208D0FB8923F44073FB813B6862
:1021F000DA88FB891343FB817B68FA891A803B6884
:102200009A887B689A853B681A887B681A857A6801
:102210000F4B9A420FD07A680E4B9A420BD07A68D5
:10222000124B9A4207D07A68114B9A4203D07A68CF
:10223000104B9A4204D13B681B7A1A467B681A8677
:102240007B6801229A821437BD465DF8047B704793
:10225000002C014000340140000400400008004010
:10226000000C0040001000400014004000400140FD
:10227000004401400048014080B485B000AF786060
:10228000396000237B810023FB810023BB817B68B5
:102290001B8C9BB223F001039AB27B681A847B6883
:1022A0001B8CFB817B689B88BB817B681B8B7B8144
:1022B0007B8923F070037B817B8923F003037B817F
:1022C0003B681A887B8913437B81FB8923F00203D7
:1022D000FB813B681A89FB891343FB813B685A8861
:1022E000FB891343FB817A68244B9A420FD07A68AA
:1022F000234B9A420BD07A68224B9A4207D07A68D5
:10230000214B9A4203D07A68204B9A4223D1FB8911
:1023100023F00803FB813B685A89FB891343FB8147
:10232000FB8923F00403FB813B689A88FB891343F4
:10233000FB81BB8923F48073BB81BB8923F40073C9
:10234000BB813B689A89BB891343BB813B68DA89AF
:10235000BB891343BB817B68BA899A807B687A8981
:102360001A833B68DA887B689A867B68FA891A84C4
:102370001437BD465DF8047B704700BF002C014058
:102380000034014000400140004401400048014049
:1023900080B485B000AF7860396000237B81002372
:1023A000FB810023BB817B681B8C9BB223F0100355
:1023B0009AB27B681A847B681B8CFB817B689B8844
:1023C000BB817B681B8B7B817B8923F4E0437B8112
:1023D0007B8923F440737B813B681B881B029AB284
:1023E0007B8913437B81FB8923F02003FB813B68BE
:1023F0001B891B019AB2FB891343FB813B685B88F5
:102400001B019AB2FB891343FB817A68224B9A42E3
:1024100003D07A68214B9A422BD1FB8923F08003A9
:10242000FB813B685B891B019AB2FB891343FB81EB
:10243000FB8923F04003FB813B689B881B019AB218
:10244000FB891343FB81BB8923F48063BB81BB8978
:1024500023F40063BB813B689B899B009AB2BB89D4
:102460001343BB813B68DB899B009AB2BB89134352
:10247000BB817B68BA899A807B687A891A833B68BA
:10248000DA887B681A877B68FA891A841437BD4614
:102490005DF8047B704700BF002C01400034014010
:1024A00080B485B000AF786039600023BB81002321
:1024B0007B810023FB817B681B8C9BB223F48053C0
:1024C0009AB27B681A847B681B8C7B817B689B88B3
:1024D000FB817B689B8BBB81BB8923F4E043BB8181
:1024E000BB8923F44073BB813B681B881B029AB2F3
:1024F000BB891343BB817B8923F400537B813B68F9
:102500001B891B039AB27B8913437B813B685B88E1
:102510001B039AB27B8913437B817A68124B9A42E0
:1025200003D07A68114B9A420AD1FB8923F4804385
:10253000FB813B689B899B019AB2FB891343FB811A
:102540007B68FA899A807B68BA899A833B68DA88C3
:102550007B68A3F840207B687A891A841437BD46CB
:102560005DF8047B704700BF002C0140003401403F
:1025700080B584B000AF786039600023FB8101230F
:10258000BB813B685B88002B02D10223FB8101E009
:102590000023FB813B689B88012B02D10223BB8176
:1025A00001E00123BB813B681B88002B1CD13B68E9
:1025B00059883B689A883B681B89786800F00CFA58
:1025C0003B68DB887868194600F084F93B681B8912
:1025D000F989BA89786800F069FA3B68DB8878681D
:1025E000194600F093F91BE03B6859883B689A88CC
:1025F0003B681B89786800F059FA3B68DB8878688B
:10260000194600F083F93B681B89F989BA89786813
:1026100000F0E2F93B68DB887868194600F05AF967
:102620001037BD4680BD00BF80B483B000AF786076
:102630000B46FB70FB78002B08D07B681B889BB295
:1026400043F001039AB27B681A8007E07B681B881D
:102650009BB223F001039AB27B681A800C37BD4607
:102660005DF8047B704700BF80B483B000AF786032
:1026700013460A467A807B707B78002B08D07B68F3
:102680009B899AB27B8813439AB27B689A8109E04E
:102690007B689B899AB27B88DB439BB213409AB2DA
:1026A0007B689A810C37BD465DF8047B704700BF9C
:1026B00080B485B000AF78600B467B800023FB813F
:1026C0007B681B89FB81FB8923F07003FB81FA89FE
:1026D0007B881343FB817B68FA891A811437BD46D6
:1026E0005DF8047B704700BF80B483B000AF7860B2
:1026F0000B46FB70FB78002B08D07B681B889BB2D5
:1027000043F080039AB27B681A8007E07B681B88DD
:102710009BB223F080039AB27B681A800C37BD46C7
:102720005DF8047B704700BF80B485B000AF78606F
:102730000B467B800023FB817B681B8BFB81FB8925
:1027400023F00803FB81FA897B881343FB817B68B4
:10275000FA891A831437BD465DF8047B704700BFC1
:1027600080B485B000AF78600B467B800023FB818E
:102770007B681B8BFB81FB8923F40063FB817B88D7
:102780001B029AB2FB891343FB817B68FA891A8387
:102790001437BD465DF8047B704700BF80B485B038
:1027A00000AF78600B467B800023FB817B689B8BAE
:1027B000FB81FB8923F40063FB817B881B029AB2B7
:1027C000FB891343FB817B68FA899A831437BD46E2
:1027D0005DF8047B704700BF80B485B000AF7860BF
:1027E00013460A467A803B800023FB817B880122C6
:1027F00002FA03F3FB817B681B8C9AB2FB89DB43F3
:102800009BB213409AB27B681A847B681B8C9AB285
:1028100039887B8801FA03F39BB213439AB27B6831
:102820001A841437BD465DF8047B704780B483B0CA
:1028300000AF78600B467B807B681B899BB223F0DE
:1028400007039AB27B681A817B681B899AB27B88DE
:1028500013439AB27B681A810C37BD465DF8047B3E
:10286000704700BF80B483B000AF78600B467B80B8
:102870007B681B899BB223F080039AB27B681A8124
:102880007B681B899AB27B8813439AB27B681A8152
:102890000C37BD465DF8047B704700BF80B483B041
:1028A00000AF78600B467B807B687A889A860C370D
:1028B000BD465DF8047B704780B483B000AF78609C
:1028C0000B467B807B687A881A870C37BD465DF89B
:1028D000047B704780B483B000AF78600B467B8088
:1028E0007B681B8B9BB223F00C039AB27B681A8324
:1028F0007B681B8B9AB27B8813439AB27B681A83DE
:102900000C37BD465DF8047B704700BF80B483B0D0
:1029100000AF78600B467B807B681B8B9BB223F4F7
:1029200040639AB27B681A837B681B8B9AB27B8860
:102930001B029BB213439AB27B681A830C37BD46C5
:102940005DF8047B704700BF80B483B000AF78604F
:102950007B681B8F9BB218460C37BD465DF8047B25
:10296000704700BF80B485B000AF78600B467B80B5
:102970000023FB730023BB8100237B817B681B8AC0
:102980009AB27B881340BB817B689B899AB27B8813
:1029900013407B81BB89002B05D07B89002B02D0A3
:1029A0000123FB7301E00023FB73FB7B1846143704
:1029B000BD465DF8047B704780B483B000AF78609B
:1029C0000B467B807B88DB439AB27B681A820C378C
:1029D000BD465DF8047B704780B487B000AFF860F7
:1029E00079813A81FB800023BB820023FB82FB6854
:1029F0001B8C9BB223F001039AB2FB681A84FB681C
:102A00001B8BBB82FB681B8CFB82BB8A23F0F3030E
:102A1000BB82FB881B019AB23B8913439AB2BB8AE3
:102A20001343BB82FA681C4B9A4213D0FA681B4BC3
:102A30009A420FD0FB68B3F1804F0BD0FA68184B65
:102A40009A4207D0FA68174B9A4203D0FA68164B9D
:102A50009A420BD1FB8A23F00203FB827A89FB8A1C
:102A600013439BB243F00103FB820AE0FB8A23F08D
:102A70000A03FB827A89FB8A13439BB243F001036A
:102A8000FB82FB68BA8A1A83FB68FA8A1A841C37AD
:102A9000BD465DF8047B7047002C014000340140C6
:102AA0000004004000080040000C004080B487B0E3
:102AB00000AFF86079813A81FB800023BB8200235C
:102AC000FB8200237B82FB681B8C9BB223F01003EC
:102AD0009AB2FB681A84FB681B8BBB82FB681B8C59
:102AE000FB827B891B017B82BB8A23F440731B051D
:102AF0001B0DBB82FB881B039AB2BB8A1343BB82AC
:102B00003B891B029AB2BB8A1343BB82FA681C4BF7
:102B10009A4213D0FA681B4B9A420FD0FB68B3F16C
:102B2000804F0BD0FA68184B9A4207D0FA68174BBF
:102B30009A4203D0FA68164B9A420BD1FB8A23F0D3
:102B40002003FB827A8AFB8A13439BB243F0100373
:102B5000FB820AE0FB8A23F0A003FB827A89FB8ACE
:102B600013439BB243F01003FB82FB68BA8A1A83BB
:102B7000FB68FA8A1A841C37BD465DF8047B7047EF
:102B8000002C0140003401400004004000080040D7
:102B9000000C004080B400AF134B134A126842F09F
:102BA00001021A60104A104B5968104B0B405360D9
:102BB0000D4A0D4B1B6823F0847323F4803313609C
:102BC000094B094A126822F480221A60064B064A11
:102BD000526822F4FE025A60034B4FF41F029A60BF
:102BE000BD465DF8047B7047001002400000FFF80E
:102BF00080B483B000AF7860134B134A126822F49C
:102C000080321A60104B104A126822F480221A6037
:102C10007B68B3F5803F03D0B3F5802F07D00DE07C
:102C2000094B094A126842F480321A6006E0064BEA
:102C3000054A126842F4A0221A6000BF0C37BD4654
:102C40005DF8047B704700BF0010024080B485B07F
:102C500000AF786039600023FB600A4B5B68FB6063
:102C6000FB6823F47C13FB607A683B681343FA68C3
:102C70001343FB60034BFA685A601437BD465DF896
:102C8000047B70470010024080B483B000AF03465D
:102C9000FB71044BFA791A600C37BD465DF8047B72
:102CA000704700BF6000424280B485B000AF7860DA
:102CB0000023FB60094B5B68FB60FB6823F00303A8
:102CC000FB60FA687B681343FB60044BFA685A6048
:102CD0001437BD465DF8047B704700BF001002400A
:102CE00080B400AF054B5B68DBB203F00C03DBB2D2
:102CF0001846BD465DF8047B704700BF00100240D7
:102D000080B485B000AF78600023FB60094B5B683E
:102D1000FB60FB6823F0F003FB60FA687B681343F9
:102D2000FB60044BFA685A601437BD465DF8047BBB
:102D3000704700BF0010024080B485B000AF7860DB
:102D40000023FB60094B5B68FB60FB6823F4E063D6
:102D5000FB60FA687B681343FB60044BFA685A60B7
:102D60001437BD465DF8047B704700BF0010024079
:102D700080B485B000AF78600023FB60094B5B68CE
:102D8000FB60FB6823F46053FB607B68DB00FA6840
:102D90001343FB60034BFA685A601437BD465DF875
:102DA000047B70470010024080B485B000AF7860AB
:102DB0000023FB60094B5B68FB60FB6823F4404326
:102DC000FB60FA687B681343FB60044BFA685A6047
:102DD0001437BD465DF8047B704700BF0010024009
:102DE00080B487B000AF786000237B6100233B6133
:102DF0000023FB600023BB604D4B5B6803F00C03BA
:102E00007B617B69042B07D0082B09D0002B34D1C0
:102E10007B68484A1A6034E07B68464A1A6030E0B2
:102E2000434B5B6803F470133B61414B5B6803F4F5
:102E30008033FB603B699B0C02333B61FB68002BDA
:102E400006D13B693C4A02FB03F27B681A6013E03F
:102E5000374B5B6803F40033002B06D03B69364ADE
:102E600002FB03F27B681A6006E03B69314A02FB11
:102E700003F27B681A6004E003E07B682D4A1A6065
:102E800000BF2B4B5B6803F0F0037B617B691B0980
:102E90007B612A4A7B6913441B78DBB2BB607B6889
:102EA0001A68BB68DA407B685A60214B5B6803F4A0
:102EB000E0637B617B691B0A7B61204A7B69134469
:102EC0001B78DBB2BB607B685A68BB68DA407B6802
:102ED0009A60174B5B6803F460537B617B69DB0A84
:102EE0007B61164A7B6913441B78DBB2BB607B684D
:102EF0005A68BB68DA407B68DA600D4B5B6803F4A4
:102F000040437B617B699B0B7B610D4A7B6913446A
:102F10001B78DBB2BB607B68DA68BB68B2FBF3F29C
:102F20007B681A611C37BD465DF8047B704700BFA3
:102F30000010024000127A0000093D0058000020F5
:102F40006800002080B483B000AF78600B46FB704F
:102F5000FB78002B06D0094B084A51697A680A436E
:102F60005A6106E0054B054A51697A68D2430A4026
:102F70005A610C37BD465DF8047B70470010024073
:102F800080B483B000AF78600B46FB70FB78002BF9
:102F900006D0094B084A91697A680A439A6106E0AB
:102FA000054B054A91697A68D2430A409A610C3709
:102FB000BD465DF8047B70470010024080B483B0CA
:102FC00000AF78600B46FB70FB78002B06D0094BF6
:102FD000084AD1697A680A43DA6106E0054B054A76
:102FE000D1697A68D2430A40DA610C37BD465DF890
:102FF000047B70470010024080B487B000AF0346E6
:10300000FB710023FB6000237B610023FB74FB79D1
:103010005B09DBB2FB60FB68012B03D1124B1B6821
:103020007B6109E0FB68022B03D10F4B1B6A7B61BC
:1030300002E00D4B5B6A7B61FB7903F01F03FB60D1
:10304000FB687A6922FA03F303F00103002B02D034
:103050000123FB7401E00023FB74FB7C18461C3742
:10306000BD465DF8047B70470010024080B489B013
:1030700000AF786039600023FB6100233B610023CF
:10308000BB610023FB6000237B610023BB603B68C6
:10309000DB7803F00F03FB613B68DB7803F0100380
:1030A000002B04D03B689B78FA691343FB613B68B3
:1030B0001B88DBB2002B44D07B681B687B6100233C
:1030C000BB6138E0BB69012202FA03F3FB603B6895
:1030D0001B881A46FB6813403B613A69FB689A42B9
:1030E00026D1BB699B00FB60FB680F2202FA03F349
:1030F000BB60BB68DB437A6913407B61FB68FA699C
:1031000002FA03F37A6913437B613B68DB78282B6F
:1031100005D1BB6901229A407B685A6108E03B688F
:10312000DB78482B04D1BB6901229A407B681A6185
:10313000BB690133BB61BB69072BC3D97B687A6963
:103140001A603B681B88FF2B46D97B685B687B61F4
:103150000023BB613AE0BB690833012202FA03F3A2
:10316000FB603B681B881A46FB6813403B613A6969
:10317000FB689A4227D1BB699B00FB60FB680F226A
:1031800002FA03F3BB60BB68DB437A6913407B61DF
:10319000FB68FA6902FA03F37A6913437B613B68BF
:1031A000DB78282B05D1BB69083301229A407B6864
:1031B0005A613B68DB78482B05D1BB690833012293
:1031C0009A407B681A61BB690133BB61BB69072BFD
:1031D000C1D97B687A695A602437BD465DF8047BA3
:1031E000704700BF80B485B000AF78600B467B802D
:1031F0000023FB737B689A687B881340002B02D006
:103200000123FB7301E00023FB73FB7B184614379B
:10321000BD465DF8047B704780B483B000AF786032
:103220000B467B807A887B681A610C37BD465DF857
:10323000047B704780B483B000AF78600B467B801E
:103240007A887B685A610C37BD465DF8047B70470D
:1032500080B483B000AF786013460A467A807B70F2
:103260007B78002B03D07A887B681A6102E07A8829
:103270007B685A610C37BD465DF8047B704700BF20
:1032800080B485B000AF78600023FB60094B1B68F9
:10329000FB60FB6803F03803FB60FA687B6813434C
:1032A000FB60044BFA681A601437BD465DF8047B76
:1032B000704700BF0020024080B483B000AF786048
:1032C000084B084A126822F010021A60054B054AA2
:1032D00011687A680A431A600C37BD465DF8047BB2
:1032E000704700BF0020024080B483B000AF786018
:1032F0007B681A684FF6FE7313407A6813607B6828
:1033000000221A607B6800225A607B6800229A6063
:103310007B680022DA607A68434B9A4206D1434BBD
:10332000424A526842F00F025A6077E07A68404B96
:103330009A4206D13D4B3D4A526842F0F0025A6033
:103340006CE07A683B4B9A4206D1384B374A526858
:1033500042F470625A6061E07A68374B9A4206D153
:10336000324B324A526842F470425A6056E07A68F0
:10337000324B9A4206D12D4B2C4A526842F47022AD
:103380005A604BE07A682E4B9A4206D1274B274A67
:10339000526842F470025A6040E07A68294B9A42BF
:1033A00006D1224B214A526842F070625A6035E0E1
:1033B0007A68254B9A4206D1244B244A526842F03F
:1033C0000F025A602AE07A68214B9A4206D11F4BBD
:1033D0001E4A526842F0F0025A601FE07A681D4BA4
:1033E0009A4206D1194B194A526842F470625A60E7
:1033F00014E07A68184B9A4206D1144B134A52686B
:1034000042F470425A6009E07A68144B9A4205D13E
:103410000E4B0E4A526842F470225A600C37BD4679
:103420005DF8047B704700BF0800024000000240C6
:103430001C0002403000024044000240580002409C
:103440006C00024080000240080402400004024078
:103450001C0402403004024044040240580402406C
:1034600080B485B000AF786039600023FB607B6872
:103470001B68FB60FB6823F4FF4323F07003FB60D1
:103480003B689A683B681B6A1A433B681B691A438E
:103490003B685B691A433B689B691A433B68DB697D
:1034A0001A433B685B6A1A433B689B6A1343FA689A
:1034B0001343FB607B68FA681A603B68DA687B68D4
:1034C0005A603B681A687B689A603B685A687B68F8
:1034D000DA601437BD465DF8047B704780B483B072
:1034E00000AF78600B46FB70FB78002B06D07B6842
:1034F0001B6843F001027B681A6006E07B681A686B
:103500004FF6FE7313407A6813600C37BD465DF8C2
:10351000047B704780B485B000AFF860B960134693
:10352000FB71FB79002B06D0FB681A68BB681A4355
:10353000FB681A6006E0FB681A68BB68DB431A4048
:10354000FB681A601437BD465DF8047B704700BF06
:1035500080B483B000AF78607B6803F08053002BA9
:1035600003D0064B7A685A6002E0054B7A685A60CD
:103570000C37BD465DF8047B704700BF0004024075
:103580000000024080B485B000AF7860396000234D
:10359000FB600023FB727B685B68FB60FB6823F4C5
:1035A000702323F48073FB603B681A683B681B79C7
:1035B0001B021343FA681343FB607B68FA685A6086
:1035C0007B689B68FB60FA68164B1340FB603B68A6
:1035D000DA683B689B681A433B685B795B0013437E
:1035E000FA681343FB607B68FA689A607B68DB6A61
:1035F000FB60FB6823F47003FB603B681B7C013BB2
:10360000DAB2FB7A1343FB72FB7A1B05FA681343A9
:10361000FB607B68FA68DA621437BD465DF8047BAC
:10362000704700BFFDF7F1FF80B483B000AF786052
:103630000B46FB70FB78002B06D07B689B6843F041
:1036400001027B689A6005E07B689B6823F00102B9
:103650007B689A600C37BD465DF8047B704700BFFD
:1036600080B483B000AF78600B46FB70FB78002B12
:1036700006D07B689B6843F480727B689A6005E0A3
:103680007B689B6823F480727B689A600C37BD4628
:103690005DF8047B704700BF80B483B000AF7860F2
:1036A0007B689B6843F008027B689A600C37BD46D4
:1036B0005DF8047B704700BF80B485B000AF7860D0
:1036C0000023FB737B689B6803F00803002B02D088
:1036D0000123FB7301E00023FB73FB7B18461437C7
:1036E000BD465DF8047B704780B483B000AF78605E
:1036F0007B689B6843F004027B689A600C37BD4688
:103700005DF8047B704700BF80B485B000AF78607F
:103710000023FB737B689B6803F00403002B02D03B
:103720000123FB7301E00023FB73FB7B1846143776
:10373000BD465DF8047B704780B483B000AF78600D
:103740000B46FB70FB78002B06D07B689B6843F42C
:10375000A0027B689A6005E07B689B6823F4A00266
:103760007B689A600C37BD465DF8047B704700BFEC
:1037700080B485B000AF7860F970BA707B700023B8
:10378000FB600023BB60FB78092B23D97B68DB68D7
:10379000FB60FB78A3F10A0213465B001344072287
:1037A00002FA03F3BB60BB68DB43FA681340FB60BB
:1037B0007978FB78A3F10A0213465B00134401FAFF
:1037C00003F3BB60FA68BB681343FB607B68FA686D
:1037D000DA601EE07B681B69FB60FA7813465B00C9
:1037E0001344072202FA03F3BB60BB68DB43FA68A9
:1037F0001340FB607978FA7813465B00134401FAB2
:1038000003F3BB60FA68BB681343FB607B68FA682C
:103810001A61BB78062B21D87B685B6BFB60BB7899
:103820005A1E13469B0013441F2202FA03F3BB6087
:10383000BB68DB43FA681340FB60F978BB785A1E1B
:1038400013469B00134401FA03F3BB60FA68BB689C
:103850001343FB607B68FA685A6347E0BB780C2B24
:1038600021D87B681B6BFB60BB78DA1F13469B007B
:1038700013441F2202FA03F3BB60BB68DB43FA6800
:103880001340FB60F978BB78DA1F13469B001344A2
:1038900001FA03F3BB60FA68BB681343FB607B6803
:1038A000FA681A6322E07B68DB6AFB60BB78A3F1ED
:1038B0000D0213469B0013441F2202FA03F3BB6060
:1038C000BB68DB43FA681340FB60F978BB78A3F16F
:1038D0000D0213469B00134401FA03F3BB60FA6820
:1038E000BB681343FB607B68FA68DA621437BD4635
:1038F0005DF8047B704700BF80B483B000AF786090
:10390000054A7B6843F0BF6343F40033D3600C3750
:10391000BD465DF8047B704700ED00E080B487B0E1
:1039200000AF786000237B6100233B610F23FB60C5
:103930007B68DB78002B38D0264BDB68DB4303F455
:10394000E0631B0A7B617B69C3F104033B617B6914
:10395000FA6822FA03F3FB607B685B781A463B69DE
:1039600002FA03F37B617B689B781A46FB6813407D
:103970007A6913437B617B691B017B6116497B6814
:103980001B787A69D2B20B4483F80023124B7A6811
:1039900012785209D2B27968097801F01F0101202A
:1039A00000FA01F143F822100EE00B4B7A6812780E
:1039B0005209D2B27968097801F01F01012000FA9A
:1039C00001F1203243F822101C37BD465DF8047B1C
:1039D000704700BF00ED00E000E100E070B5224E4E
:1039E00021F00044B44286B002460B461ADD1F4D5A
:1039F000AC4203DD01F03AF906B070BD02AA00F056
:103A000037F800F0030001281DD0022812D008B3B7
:103A1000DDE90201DDE9042300F04AFA01F1004189
:103A200006B070BD002300930022002300F044FF85
:103A300006B070BD01230093DDE90201DDE9042336
:103A400000F03AFFEAE7DDE90201DDE9042300F0D6
:103A50002FFAD1E701230093DDE90201DDE9042318
:103A600000F02AFFC8E700BFFB21E93FFFFFEF7F1F
:103A70002DE9F04F964B21F000469E4291B004464E
:103A80000D468B46904640F38180924B9E4226DC49
:103A900085A3D3E90023002940F3A08101F0E6F8D3
:103AA0008D4B04469E420D4600F0858080A3D3E9ED
:103AB000002301F0DBF802460B46C8E9002320464C
:103AC000294601F0D3F87AA3D3E9002301F0CEF818
:103AD0000127C8E90201384611B0BDE8F08F7F4BDD
:103AE0009E4240F385807E4B9E425ADC4FEA265927
:103AF000A9F21649A6EB09552946044601F004FD32
:103B000001F002FA06460F4602460B4620462946B9
:103B1000CDE90A6701F0AAF80022724B01F05AFAC7
:103B20000F46064601F0F0FC01F0EEF902460B46A6
:103B300004460D4630463946CDE90C4501F096F86D
:103B40000022684B01F046FA00220023CDE90E0165
:103B500001F0A8FC002800F06D81002320462946D2
:103B6000002201F09FFC002814BF012302235E48BD
:103B70000221019000914A460AA8414600F0BCFA91
:103B8000BBF1000FC0F24881074606E00022002387
:103B9000C8E90045C8E902230027384611B0BDE84E
:103BA000F08F02460B4601F061F80027C8E90201D8
:103BB000C8E90001F1E740A3D3E9002301F056F87A
:103BC0003FA3D3E9002304460D4601F04FF8024617
:103BD0000B46C8E900232046294601F047F838A3E0
:103BE000D3E9002301F042F80127C8E90201D4E734
:103BF00000F01AFF34A3D3E9002304460D4601F078
:103C0000E9F90022394B01F033F801F07DFC074659
:103C100001F07AF924A3D3E90023CDE9060101F0EC
:103C2000D9F902460B462046294601F01FF820A389
:103C3000D3E90023CDE90201DDE9060101F0CAF96B
:103C40001F2FCDE90401DDE9020153DC284B7A1E68
:103C500053F82230B3424DD0DDE9042301F006F8D9
:103C600004460D46C8E90045DDE9020122462B461F
:103C700000F0FCFFDDE9042300F0F8FFBBF1000FCA
:103C8000C8E9020189DA264601F1004305F1004442
:103C90007F42C8F80060C8F80440C8F80800C8F8B7
:103CA0000C307AE7AFF3008000004054FB21F93F6D
:103CB0003163621A61B4D03D0000601A61B4D03D36
:103CC0007370032E8A19A33B83C8C96D305FE43F2C
:103CD000FB21E93F7BD90240FB21F93FFB21394120
:103CE000FFFFEF7F00007041A45B00080000E03F91
:103CF000245B0008DDE9042300F0B8FF3615C1F3AA
:103D00000A53F31A04460D46102BC8E90045ABDDF3
:103D10005BA3D3E90023DDE9060101F05BF904466A
:103D20000D4622462B46DDE9020100F09FFFCDE95A
:103D30000801DDE90823DDE9020100F097FF2246D2
:103D40002B4600F093FF50A3D3E9002304460D4611
:103D5000DDE9060101F03EF922462B4600F086FF20
:103D6000CDE90401DDE90423DDE9080100F07EFF6F
:103D7000C1F30A53F61A04460D46312EC8E9004530
:103D800078DD43A3D3E90023DDE9060101F022F940
:103D900004460D4622462B46DDE9080100F066FF89
:103DA000CDE90201DDE90223DDE9080100F05EFF53
:103DB00022462B4600F05AFF37A3D3E900230446DE
:103DC0000D46DDE9060101F005F922462B4600F01B
:103DD0004DFFCDE90401DDE902013DE700F048FFB8
:103DE000314B04469E420D4626D02DA3D3E9002335
:103DF00000F03EFF02460B46C8E900232046294654
:103E000000F034FF26A3D3E9002300F031FF4FF088
:103E1000FF37C8E90201C0E6D8F80420D8F80C3012
:103E200002F1004203F100434742C8F80420C8F8F9
:103E30000C30B2E603239AE611A3D3E9002300F085
:103E400017FF11A3D3E9002304460D4600F010FF2D
:103E500002460B46C8E900232046294600F006FF2B
:103E600009A3D3E9002300F003FF4FF0FF37C8E9AF
:103E7000020192E6DDE90823CDE90223F4E600BF62
:103E80000000601A61B4D03D7370032E8A19A33B01
:103E90000000002E8A19A33BC14920259A837B3953
:103EA0003163621A61B4D03DFB21F93FAFF300806A
:103EB0002DE9F04F21F00049B9F1795F85B0064650
:103EC0000F4692469B466BDA01F01EFB002800F07D
:103ED000EA8032463B463046394601F07BF874A30F
:103EE000D3E9002304460D4601F074F872A3D3E928
:103EF000002300F0BDFE22462B4601F06BF870A3B4
:103F0000D3E9002300F0B2FE22462B4601F062F80E
:103F10006DA3D3E9002300F0ABFE22462B4601F04F
:103F200059F86BA3D3E9002300F0A0FE22462B46EC
:103F300001F050F868A3D3E9002300F099FE22466F
:103F40002B4601F047F8CDE9000120462946002222
:103F5000634B01F03FF8DDE90023804689462046A7
:103F6000294601F037F8524604460D465B46304676
:103F7000394601F02FF802460B462046294600F04C
:103F800075FE02460B464046494600F06FFE02466B
:103F90000B460020534900F069FE05B0BDE8F08FE4
:103FA00002460B4601F016F841A3D3E9002304466C
:103FB0000D4601F00FF840A3D3E9002300F058FEAE
:103FC00022462B4601F006F83DA3D3E9002300F07A
:103FD0004DFE22462B4600F0FDFF3BA3D3E9002314
:103FE00000F046FE22462B4600F0F4FF38A3D3E94A
:103FF000002300F03BFE22462B4600F0EBFF36A3E9
:10400000D3E9002300F034FE2B46224600F0E2FF05
:10401000354BCDE90001994597DD344B0022994598
:1040200039DCA9F50013002200202E49904699465C
:1040300000F01CFECDE90201204629460022284B53
:1040400000F0C8FF42464B4600F010FEDDE90023B9
:10405000804689462046294600F0BCFF5246044669
:104060000D465B463046394600F0B4FF02460B462B
:104070002046294600F0FAFD02460B4640464946D6
:1040800000F0F4FD02460B46DDE9020100F0EEFD12
:1040900005B0BDE8F08F164B4FF00008CDE90223C4
:1040A000DFF85090C8E70F49002005B0BDE8F08F59
:1040B000D43888BEE9FAA8BDC4B1B4BD9EEE213E95
:1040C000AD529C804F7E923E9015CB19A001FA3ED6
:1040D0007751C1166CC1563F4C5555555555A53FA6
:1040E0000000E03F0000F03F3233D33F0000E93FE3
:1040F0000000E73F0000D23F2DE9F04F7B4DD41E7A
:1041000085FB0465E417C4EBA505ADF51D7D25EA27
:10411000E5750E959946764CEB43A69D09F1FF3661
:1041200054F8254004960C9407900E9C049D0C981E
:1041300003EB430302EBC303A61B2C180B910A935A
:1041400017D4A798344401340DF1880800EB860594
:10415000002709E0E85900F0D7FE0136A642E8E959
:10416000020107F1040704D0002EF3DA0020002139
:10417000F3E70C9C002C2DDB0C9D74AE06EBC50BFD
:1041800024A800EBC90A0DF5E478CDF80CB0049C26
:10419000002CC0F29581079D5746A5F1080B00241D
:1041A0000025002677E90223FBE9020100F012FF57
:1041B00002460B462046294600F05AFD01364E4580
:1041C00004460D46EED1E8E90245039C0AF1080ACF
:1041D000A045DCD10C9D10AC04EB850602940F9633
:1041E0000395039E9CABF60033440696039E53E969
:1041F0002845002E2EDD069E0DF5E87AB244039E7A
:104200000DF13C0B0BEB860B0DF13C080022394BFA
:104210002046294600F0DEFE01F076F900F074FE3B
:104220000022354B06460F4600F0D4FE02460B46F0
:104230002046294600F01AFD01F066F9324648F89A
:10424000040F3B467AE9020100F012FDD84504460E
:104250000D46DBD1204629460A9A00F079FC00225F
:104260004FF07F5304460D4600F0B4FE00F0E0FB33
:104270000022224B00F0AEFE02460B4620462946A5
:1042800000F0F4FC04460D4601F03EF9824600F0D1
:104290003BFE02460B462046294600F0E7FC0A9CFE
:1042A0000646002C0F4640F3F280039D10A8691EBD
:1042B00050F82130C4F1180043FA00F202FA00F07D
:1042C000C4F117051B1A43FA05F510AC44F8213068
:1042D0009244002D3EDD039C0AF1010A002C40F3BC
:1042E000F98010AB03EB8401002411E0ABAAAA2AE9
:1042F000AC5C00080000703E0000704100002040EF
:10430000C2F1807012B143F8040C01248B420DD02D
:1043100053F8042B002CF3D0C2F1FF1202F57F42B8
:104320008B4243F8042C4FF00104F1D10A98002885
:104330000DDD012800F0B380022808D1039910A8F0
:104340004B1E50F82320C2F3150240F82320022D03
:1043500000F08480304639460022002301F0A2F8A4
:10436000002800F0B980039C0C9E04F1FF384645FC
:104370000DDC10A800EB84030F98002253F8041DF5
:10438000834242EA0102F9D1002A40F044820C9CA7
:1043900010AD621E55F82230002B40F0548205EB20
:1043A0008202012352F8041D01330029FAD0039E32
:1043B000039C1E44631CB3420D9649DC049D0E9E73
:1043C0002B44214622460D9D3244494424AE03F13C
:1043D000FF3B2B1B06EBC1040994A79D069C06EB33
:1043E000CB0B74AE05EB8202DB00264403920893EC
:1043F00006964FF00008039D08F1080855F8040FD1
:10440000039500F081FD049EEBE90201002E22DB02
:10441000079C099FA4F1080A4744002400250026B0
:1044200077E90223FAE9020100F0D4FD02460B46C7
:104430002046294600F01CFC01364E4504460D4638
:10444000EED1069EE6E90245089C0696A045D2D12B
:104450000D9D0395C5E600240025F2E732463B4654
:104460000020924900F002FC06460F46002C3FF463
:1044700071AF0A9A00208D4900F06AFB02460B4694
:104480003046394600F0F2FB06460F4662E710D18F
:10449000039D10A86B1E50F82350ED1519E70399E2
:1044A00010A84B1E50F82320C2F3160240F8232018
:1044B0004DE700227E4B01F013F820B9054649E78D
:1044C000002400257FE6039C0225002C0AF1010A46
:1044D0003FF707AF002429E70A9C3046624239467D
:1044E0000695CDF81CA000F033FB0022714B04466A
:1044F0000D4600F0F5FF002800F0BB8100226E4B56
:104500002046294600F066FD00F0FEFF064600F05A
:10451000FBFC0022674B00F05DFD02460B46204687
:10452000294600F0A3FB00F0EFFF039C0A9D10A9B1
:1045300004F10108183541F824000A9541F8286073
:104540000A9A0020594900F003FBB8F1000F044615
:104550000D465ADB08F1010610A874A9039600EB7A
:10456000860701EBC60657F8040D00F0CDFC224685
:104570002B4600F02FFD002266E902014E4B20463B
:10458000294600F027FD029A044697420D46EAD1DB
:1045900008F1005B0BF1FF3B74AB0DF5987ACDF899
:1045A0002080DDF8308003EBCB0B4FF00009CDF815
:1045B00010A0B8F1000FC0F22881DFF800A15F461B
:1045C00000240025002601E04E4510DCF7E9022317
:1045D000FAE9020100F0FEFC02460B46204629469D
:1045E00000F046FB0136B04504460D46ECDA049E69
:1045F000ABF1080B06EBC903C3E90045039C09F1C5
:104600000109A145D5D1DDF82080A69D032D00F23A
:104610009780DFE815F0DA009C009C000400B8F1F8
:10462000000F40F312810DF5987A08F101030AEBAF
:10463000C3034FEAC80B039399460AEB0B030DF52E
:104640009C7CD3E9006701E026462F4659E90445E2
:1046500032463B4620462946CDF804C0CDE9044504
:1046600000F006FB04460D4622462B46DDE9040118
:1046700000F0FCFA32463B4600F0FAFA69E9020122
:10468000DDF804C049E90245E145DDD1B8F1010F8B
:1046900040F30D81DDF80CC00AEB0B03CDF810A040
:1046A0000AF1100BD3E90045E2460BE00000F03FB1
:1046B0000000E03F000070410000703EB85C000860
:1046C00034463D465AE9048922462B46404649462F
:1046D00000F0CEFA06460F4632463B464046494673
:1046E00000F0C4FA22462B4600F0C2FA6AE9020141
:1046F000DA454AE90267E3D1DDF810A0039C002007
:10470000002174E9022300F0B3FAA345F9D1069D14
:10471000002D00F0A280DAF80450DAF80C400B9E6D
:10472000DAF80020DAF8083005F1004504F1004419
:1047300001F100417560F4603260B3603061716115
:10474000079C04F007000DF51D7DBDE8F08FB8F162
:10475000000FC0F2A7800DF5987A08F1010400223D
:1047600000230AEBC4041046194674E9022300F042
:104770007FFA5445F9D102460B46069E002E47D0DB
:10478000104603F100410B9CC4E90001DAE9000185
:1047900000F06CFAB8F1000F07DD0AEBC808FAE97F
:1047A000022300F065FAC245F9D1069D002D6AD0BA
:1047B0000B9E024601F10043C6E90223079C04F068
:1047C00007000DF51D7DBDE8F08FB8F1000F66DB29
:1047D00008F101044CAD05EBC4040020002174E98C
:1047E000022300F045FAAC42F9D1069C002C50D0CF
:1047F0000B9D024601F10043C5E90023079C04F02C
:1048000007000DF51D7DBDE8F08F00240025EEE6C4
:1048100010461946B7E70A9E069510AD55F82830A0
:10482000183ECDF81CA00A96002B7FF489AE05EB4C
:104830008803324653F8041D08F1FF38183A00295E
:10484000F8D00A927CE60123B1E5069D0020002104
:104850000DF5987A002D7FF45EAF0B9EDAE9002308
:10486000C6E90401DAE90201C6E90023C6E902014A
:1048700066E72046294600F047FEDDF80C8010AAC6
:1048800042F828005CE60B9E02460B46C6E902236E
:1048900094E70B9D02460B46C5E90023AEE70020D6
:1048A0000021A2E7002200230DF5987A65E7002099
:1048B00000212CE7000000002DE9F04F21F0004618
:1048C000B6F1795F85B004460D469046994604DA04
:1048D00000F01AFE002800F0848022462B46204675
:1048E000294600F077FB22462B4606460F4600F08D
:1048F00071FB3FA3D3E9002382468B4630463946FD
:1049000000F068FB3CA3D3E9002300F0AFF9324686
:104910003B4600F05FFB3AA3D3E9002300F0A8F97F
:1049200032463B4600F056FB37A3D3E9002300F0A4
:104930009DF932463B4600F04DFB35A3D3E90023F9
:1049400000F096F90E9BCDE90201002B33D04046D2
:1049500049460022324B00F03DFBDDE90223CDE960
:1049600000015046594600F035FB02460B46DDE992
:10497000000100F07BF932463B4600F02BFB42463B
:104980004B4600F073F924A3D3E9002306460F46F3
:104990005046594600F01EFB02460B46304639464B
:1049A00000F066F902460B462046294600F05EF903
:1049B00005B0BDE8F08FDDE902233046394600F04E
:1049C00009FB15A3D3E9002300F050F952465B46DA
:1049D00000F000FB22462B4600F04AF905B0BDE886
:1049E000F08F2046294605B0BDE8F08FAFF3008078
:1049F0007CD5CF5A3AD9E53DEB9C2B8AE6E55A3E69
:104A00007DFEB157E31DC73ED561C119A0012A3F04
:104A1000A6F810111111813F495555555555C53FFF
:104A20000000E03FAFF3008021F00041704700BF7D
:104A30002DE9F84FC1F30A57A7F2FF36132E0246AD
:104A40000B4604460D4689468A4680461CDC002EED
:104A500040DB3D4F374107EA010C5CEA000C18D0FF
:104A600037A3D3E9002300F003F90022002300F06C
:104A700041FD28B1002D42DB2AEA07094FF000086A
:104A800040464946BDE8F88F332E06DDB6F5806F07
:104A900031D010461946BDE8F88FA7F2134C4FF0FD
:104AA000FF3B2BFA0CFB1BEA000FF2D024A3D3E947
:104AB000002300F0DDF80022002300F01BFD002899
:104AC000DED0002D22DB28EA0B08D14640464946BD
:104AD000BDE8F88F1AA3D3E9002300F0C9F800223B
:104AE000002300F007FD0028CAD0002D1CDB4FF08A
:104AF0000008C146C4E700F0BBF8BDE8F88F4FF4EA
:104B0000801A4AFA06F606EB050AB5E7142E14D009
:104B1000C7F586670123033703FA07F717EB040885
:104B200028BF05EB030ACEE725F00042074B2243DE
:104B300018BF99464FF00008A2E705F1010AC2E745
:104B40009C7500883CE4377EFFFF0F000000F0BF3B
:104B5000C1F30A532DE9F041904606460F460A4636
:104B60001BBB21F00043034334D0354B002200F03F
:104B700031FA344B064698450F463BDBC1F30A53E6
:104B8000363B0A46434440F2FE718B4216DD28A1B3
:104B9000D1E9000132463B4600F05AF824A3D3E99C
:104BA000002300F017FABDE8F08140F2FF74A34241
:104BB00027D0434440F2FE718B42E8DC002B0BDD32
:104BC00022F0FF4222F4E00242EA0357304639461F
:104BD000BDE8F081BDE8F08113F1350F17DA4CF232
:104BE00050339845D3DC14A1D1E9000132463B464D
:104BF00000F02EF810A3D3E9002300F0EBF9BDE894
:104C0000F08102460B4600F033F8BDE8F08122F057
:104C1000FF4222F4E002363342EA03573046394677
:104C20000022094B00F0D6F9BDE8F081AFF3008017
:104C30009C7500883CE4377E59F3F8C21F6EA501CD
:104C400000005043B03CFFFF0000903CAFF30080F9
:104C500030B403F0004321F0004243EA020130BCCB
:104C6000704700BF81F0004102E000BF83F00043C5
:104C700030B54FEA41044FEA430594EA050F08BFF7
:104C800090EA020F1FBF54EA000C55EA020C7FEABB
:104C9000645C7FEA655C00F0E2804FEA5454D4EB38
:104CA0005555B8BF6D420CDD2C4480EA020281EA02
:104CB000030382EA000083EA010180EA020281EA3A
:104CC0000303362D88BF30BD11F0004F4FEA01318C
:104CD0004FF4801C4CEA113102D0404261EB41019B
:104CE00013F0004F4FEA03334CEA133302D0524221
:104CF00063EB430394EA050F00F0A780A4F10104DD
:104D0000D5F1200E0DDB02FA0EFC22FA05F2801816
:104D100041F1000103FA0EF2801843FA05F35941FC
:104D20000EE0A5F120050EF1200E012A03FA0EFC7B
:104D300028BF4CF0020C43FA05F3C01851EBE371A5
:104D400001F0004507D54FF0000EDCF1000C7EEBC2
:104D500000006EEB0101B1F5801F1BD3B1F5001F00
:104D60000CD349085FEA30004FEA3C0C04F101041F
:104D70004FEA445212F5800F80F09A80BCF1004F48
:104D800008BF5FEA500C50F1000041EB045141EACA
:104D9000050130BD5FEA4C0C404141EB010111F4CB
:104DA000801FA4F10104E9D191F0000F04BF014676
:104DB0000020B1FA81F308BF2033A3F10B03B3F154
:104DC00020020CDA0C3208DD02F1140CC2F10C02E4
:104DD00001FA0CF021FA02F10CE002F11402D8BF42
:104DE000C2F1200C01FA02F120FA0CFCDCBF41EA0E
:104DF0000C019040E41AA2BF01EB0451294330BDDD
:104E00006FEA04041F3C1CDA0C340EDC04F11404B9
:104E1000C4F1200220FA04F001FA02F340EA030090
:104E200021FA04F345EA030130BDC4F10C04C4F1D6
:104E3000200220FA02F001FA04F340EA03002946B6
:104E400030BD21FA04F0294630BD94F0000F83F400
:104E5000801306BF81F480110134013D4EE77FEAE3
:104E6000645C18BF7FEA655C29D094EA050F08BF2F
:104E700090EA020F05D054EA000C04BF1946104610
:104E800030BD91EA030F1EBF0021002030BD5FEA54
:104E9000545C05D14000494128BF41F0004130BD7C
:104EA00014F580043CBF01F5801130BD01F00045D0
:104EB00045F0FE4141F470014FF0000030BD7FEA43
:104EC000645C1ABF194610467FEA655C1CBF0B463E
:104ED000024650EA013406BF52EA033591EA030F55
:104EE00041F4002130BD00BF90F0000F04BF00214D
:104EF000704730B54FF4806404F132044FF0000580
:104F00004FF0000150E700BF90F0000F04BF0021F8
:104F1000704730B54FF4806404F1320410F000455E
:104F200048BF40424FF000013EE700BF42004FEA59
:104F3000E2014FEA31014FEA02701FBF12F07F43D6
:104F400093F07F4F81F06051704792F0000F14BFD3
:104F500093F07F4F704730B54FF4607401F0004517
:104F600021F0004120E700BF50EA010208BF70476E
:104F700030B54FF000050AE050EA010208BF704763
:104F800030B511F0004502D5404261EB41014FF4CC
:104F9000806404F132045FEA915C3FF4DCAE4FF0D0
:104FA00003025FEADC0C18BF03325FEADC0C18BFB7
:104FB000033202EBDC02C2F1200300FA03FC20FA08
:104FC00002F001FA03FE40EA0E0021FA02F1144455
:104FD000C1E600BF70B54FF0FF0C4CF4E06C1CEA6A
:104FE00011541DBF1CEA135594EA0C0F95EA0C0FDF
:104FF00000F0DEF82C4481EA030621EA4C5123EA52
:105000004C5350EA013518BF52EA033541F4801180
:1050100043F4801338D0A0FB02CE4FF00005E1FB33
:1050200002E506F00042E0FB03E54FF00006E1FB7D
:1050300003569CF0000F18BF4EF0010EA4F1FF04C0
:10504000B6F5007F64F5407404D25FEA4E0E6D4100
:1050500046EB060642EAC62141EA55514FEAC52011
:1050600040EA5E504FEACE2EB4F1FD0C88BFBCF58D
:10507000E06F1ED8BEF1004F08BF5FEA500E50F13E
:10508000000041EB045170BD06F0004646EA010104
:1050900040EA020081EA0301B4EB5C04C2BFD4EB36
:1050A0000C0541EA045170BD41F480114FF0000E2F
:1050B000013C00F3AB8014F1360FDEBF002001F09D
:1050C000004170BDC4F10004203C35DA0C341BDC17
:1050D00004F11404C4F1200500FA05F320FA04F0E9
:1050E00001FA05F240EA020001F0004221F000411D
:1050F00010EBD37021FA04F642EB06015EEA430E90
:1051000008BF20EAD37070BDC4F10C04C4F12005BF
:1051100000FA04F320FA05F001FA04F240EA020072
:1051200001F0004110EBD37041F100015EEA430E43
:1051300008BF20EAD37070BDC4F1200500FA05F263
:105140004EEA020E20FA04F301FA05F243EA0203E2
:1051500021FA04F001F0004121FA04F220EA0200F1
:1051600000EBD3705EEA430E08BF20EAD37070BD37
:1051700094F0000F0FD101F00046400041EB010117
:1051800011F4801F08BF013CF7D041EA060195F0F9
:10519000000F18BF704703F00046520043EB0303B3
:1051A00013F4801F08BF013DF7D043EA06037047A0
:1051B00094EA0C0F0CEA135518BF95EA0C0F0CD0AB
:1051C00050EA410618BF52EA4306D1D181EA0301F1
:1051D00001F000414FF0000070BD50EA410606BFEB
:1051E0001046194652EA430619D094EA0C0F02D130
:1051F00050EA013613D195EA0C0F05D152EA033675
:105200001CBF104619460AD181EA030101F0004192
:1052100041F0FE4141F470014FF0000070BD41F0DB
:10522000FE4141F4780170BD70B54FF0FF0C4CF4B5
:10523000E06C1CEA11541DBF1CEA135594EA0C0FD4
:1052400095EA0C0F00F0A7F8A4EB050481EA030E21
:1052500052EA03354FEA013100F088804FEA033308
:105260004FF0805545EA131343EA12634FEA0222D6
:1052700045EA111545EA10654FEA00260EF0004197
:105280009D4208BF964244F1FD0404F5407402D2E9
:105290005B084FEA3202B61A65EB03055B084FEA7A
:1052A00032024FF480104FF4002CB6EB020E75EB77
:1052B000030E22BFB61A754640EA0C005B084FEA9F
:1052C0003202B6EB020E75EB030E22BFB61A75461C
:1052D00040EA5C005B084FEA3202B6EB020E75EB67
:1052E000030E22BFB61A754640EA9C005B084FEADF
:1052F0003202B6EB020E75EB030E22BFB61A7546EC
:1053000040EADC0055EA060E18D04FEA051545EADA
:1053100016754FEA06164FEAC30343EA52734FEA83
:10532000C2025FEA1C1CC0D111F4801F0BD141EAFC
:1053300000014FF000004FF0004CB6E711F4801F61
:1053400004BF01430020B4F1FD0C88BFBCF5E06F41
:105350003FF6AFAEB5EB030C04BFB6EB020C5FEA51
:10536000500C50F1000041EB045170BD0EF0004EA6
:105370004EEA113114EB5C04C2BFD4EB0C0541EAD8
:10538000045170BD41F480114FF0000E013C90E6D5
:1053900045EA060E8DE60CEA135594EA0C0F08BF99
:1053A00095EA0C0F3FF43BAF94EA0C0F0AD150EA98
:1053B00001347FF434AF95EA0C0F7FF425AF10462B
:1053C00019462CE795EA0C0F06D152EA03353FF453
:1053D000FDAE1046194622E750EA410618BF52EAD0
:1053E00043067FF4C5AE50EA41047FF40DAF52EAA4
:1053F00043057FF4EBAE12E74FF0FF3C06E000BF41
:105400004FF0010C02E000BF4FF0010C4DF804CD4D
:105410004FEA410C7FEA6C5C4FEA430C18BF7FEA0D
:105420006C5C1BD001B050EA410C0CBF52EA430C3B
:1054300091EA030F02BF90EA020F0020704710F1BB
:10544000000F91EA030F58BF994208BF90422CBF4A
:10545000D8176FEAE37040F0010070474FEA410C43
:105460007FEA6C5C02D150EA013C07D14FEA430C61
:105470007FEA6C5CD6D152EA033CD3D05DF8040BD2
:10548000704700BF8446104662468C461946634604
:1054900000E000BF01B5FFF7B7FF002848BF10F1DB
:1054A000000F01BD4DF808EDFFF7F4FF0CBF012020
:1054B00000205DF808FB00BF4DF808EDFFF7EAFF9C
:1054C00034BF012000205DF808FB00BF4DF808ED57
:1054D000FFF7E0FF94BF012000205DF808FB00BF4C
:1054E0004DF808EDFFF7CEFF94BF012000205DF8D6
:1054F00008FB00BF4DF808EDFFF7C4FF34BF0120E3
:1055000000205DF808FB00BF4FEA410212F50012CF
:1055100015D211D56FF47873B3EB625212D94FEAFA
:10552000C12343F0004343EA505311F0004F23FAE4
:1055300002F018BF404270474FF00000704750EA39
:10554000013005D111F0004008BF6FF000407047F6
:105550004FF00000704700BF73B96AB9002908BF57
:105560000028BCBF00204FF00041C4BF6FF00041D5
:105570004FF0FF3000F03CB882B0EC462DE900500F
:1055800000F006F8DDF804E002B00CBC704700BF84
:105590002DE9704F089E14461D468046894600F04E
:1055A00029F804FB01F3A4FB00AB00FB0532934494
:1055B000B8EB0A0869EB0B09C6E90089BDE8708FF2
:1055C0002DE9704F089E14461D468046894600F01E
:1055D00061F900FB05F5A0FB04AB04FB0154A344F7
:1055E000B8EB0A0869EB0B09C6E90089BDE8708FC2
:1055F000704700BF00292DE9F00FC0F2A180002400
:10560000002BC0F29880154606460F46002B3FD16E
:105610008A4258D9B2FA82F34BB1C3F1200201FA9F
:1056200003F720FA02F29D4000FA03F61743290C13
:10563000B7FBF1F201FB1277A8B200FB02F34FEACD
:10564000164C4CEA0747BB4209D97F1902F1FF3CCF
:1056500080F00581BB4240F20281023A2F44FF1ADA
:10566000B7FBF1F301FB137100FB03F0B6B246EA9E
:105670000141884208D9491903F1FF3780F0F180D0
:10568000884240F2EE80023B43EA0242002303E0FC
:105690008B420AD900231A461046194614B14042DB
:1056A00061EB4101BDE8F00F7047B3FA83F8B8F140
:1056B000000F40F088808B4202D3824200F2E280E9
:1056C00000230122E8E712B90123B3FBF2F5B5FA92
:1056D00085F2002A3AD17F1B280C1FFA85FC012392
:1056E000B7FBF0F100FB11770CFB01F24FEA164813
:1056F00048EA0747BA4207D97F1901F1FF3802D2B9
:10570000BA4200F2C4804146BF1AB7FBF0F200FB78
:1057100012700CFB02FCB6B246EA0040844507D981
:10572000401902F1FF3702D2844500F2AE803A46BA
:1057300042EA0142B0E7E443524263EB430362E7CB
:10574000404261EB41014FF0FF3459E79540C2F10F
:10575000200927FA09F126FA09F99740280CB1FB2C
:10576000F0F800FB18111FFA85FC0CFB08F349EA5E
:1057700007094FEA194747EA01418B4206FA02F648
:1057800008D9491908F1FF327AD28B4278D9A8F1A9
:1057900002082944C91AB1FBF0F300FB13170CFBF4
:1057A00003F21FFA89F949EA0747BA4207D97F1974
:1057B00003F1FF3160D2BA425ED9023B2F44BF1AD7
:1057C00043EA08438CE7C8F1200225FA02F103FA04
:1057D00008FC27FA02F320FA02F207FA08F741EA76
:1057E0000C0C4FEA1C49B3FBF9F109FB11331FFA0A
:1057F0008CFA0AFB01FB17433A0C42EA03439B4530
:1058000005FA08F008D913EB0C0301F1FF3235D289
:105810009B4533D902396344CBEB0303B3FBF9F265
:1058200009FB12330AFB02FABFB247EA0347BA4543
:1058300008D917EB0C0702F1FF331BD2BA4519D96F
:10584000023A674442EA0145A5FB0001CAEB07079B
:105850008F424FF000030AD305D02A461CE7624668
:10586000FDE63B4610E706FA08F68642F5D26A1EC8
:10587000002311E71A46E5E70B46A0E71146CBE700
:10588000904687E74346424606E7023A50E7023928
:105890002F4439E72DE9F00F144605460E46002B3C
:1058A00043D18A4253D9B2FA82F757B1C7F12006E1
:1058B00020FA06F601FA07F302FA07F400FA07F5F0
:1058C0001E43210CB6FBF1F201FB1266A0B200FBF5
:1058D00002F32F0C47EA0646B34209D9361902F102
:1058E000FF3780F0FD80B34240F2FA80023A26444E
:1058F000F61AB6FBF1F301FB136100FB03F0ADB246
:1059000045EA0141884208D9091903F1FF3680F0C0
:10591000E980884240F2E680023B43EA02420023EB
:1059200010461946BDE8F00F70478B424CD8B3FAC9
:1059300083F6002E4FD18B4202D3824200F2DD80EB
:10594000BDE8F00F0023012210461946704712B936
:105950000124B4FBF2F4B4FA84F2002A40F082800D
:10596000091B260CA7B20123B1FBF6F006FB1011B0
:1059700007FB00F24FEA154C4CEA01418A4207D975
:10598000091900F1FF3C02D28A4200F2C880604649
:10599000891AB1FBF6F206FB121107FB02F7ADB252
:1059A00045EA0145AF4208D92C1902F1FF3180F0D8
:1059B0009B80A74240F29880023A42EA0042104699
:1059C0001946BDE8F00F704700231A4610461946E5
:1059D000BDE8F00F7047C6F1200522FA05F703FA7B
:1059E00006F421FA05F301FA06FB20FA05F53C431B
:1059F0004FEA1448B3FBF8FC08FB1C331FFA84F988
:105A000009FB0CFA45EA0B0B4FEA1B4545EA034339
:105A10009A4502FA06F204D91B190CF1FF356FD32F
:105A2000AC46CAEB0303B3FBF8F508FB153309FBDF
:105A300005F91FFA8BFB4BEA0347B94504D93F1917
:105A400005F1FF3362D31D4645EA0C4CACFB022343
:105A5000C9EB07079F424FF000054AD346D0624684
:105A60002B465DE79440C2F1200921FA09FC9140E0
:105A700020FA09F9260CBCFBF6F806FB18CCA7B2F5
:105A800007FB08F349EA01094FEA194141EA0C4CC6
:105A9000634500FA02F509D91CEB040C08F1FF324A
:105AA0003BD2634539D9A8F10208A444C3EB0C0CDE
:105AB000BCFBF6F306FB13C107FB03F21FFA89F9DF
:105AC00049EA01418A4207D9091903F1FF3022D27C
